{
  "contractName": "MockBridgeImplementation",
  "abi": [
    {
      "anonymous": false,
      "inputs": [
        {
          "indexed": false,
          "internalType": "address",
          "name": "previousAdmin",
          "type": "address"
        },
        {
          "indexed": false,
          "internalType": "address",
          "name": "newAdmin",
          "type": "address"
        }
      ],
      "name": "AdminChanged",
      "type": "event"
    },
    {
      "anonymous": false,
      "inputs": [
        {
          "indexed": true,
          "internalType": "address",
          "name": "beacon",
          "type": "address"
        }
      ],
      "name": "BeaconUpgraded",
      "type": "event"
    },
    {
      "anonymous": false,
      "inputs": [
        {
          "indexed": true,
          "internalType": "address",
          "name": "oldContract",
          "type": "address"
        },
        {
          "indexed": true,
          "internalType": "address",
          "name": "newContract",
          "type": "address"
        }
      ],
      "name": "ContractUpgraded",
      "type": "event"
    },
    {
      "anonymous": false,
      "inputs": [
        {
          "indexed": true,
          "internalType": "address",
          "name": "implementation",
          "type": "address"
        }
      ],
      "name": "Upgraded",
      "type": "event"
    },
    {
      "inputs": [],
      "name": "WETH",
      "outputs": [
        {
          "internalType": "contract IWETH",
          "name": "",
          "type": "address"
        }
      ],
      "stateMutability": "view",
      "type": "function"
    },
    {
      "inputs": [
        {
          "internalType": "address",
          "name": "tokenAddress",
          "type": "address"
        },
        {
          "internalType": "uint32",
          "name": "nonce",
          "type": "uint32"
        }
      ],
      "name": "attestToken",
      "outputs": [
        {
          "internalType": "uint64",
          "name": "sequence",
          "type": "uint64"
        }
      ],
      "stateMutability": "payable",
      "type": "function"
    },
    {
      "inputs": [
        {
          "internalType": "uint16",
          "name": "chainId_",
          "type": "uint16"
        }
      ],
      "name": "bridgeContracts",
      "outputs": [
        {
          "internalType": "bytes32",
          "name": "",
          "type": "bytes32"
        }
      ],
      "stateMutability": "view",
      "type": "function"
    },
    {
      "inputs": [],
      "name": "chainId",
      "outputs": [
        {
          "internalType": "uint16",
          "name": "",
          "type": "uint16"
        }
      ],
      "stateMutability": "view",
      "type": "function"
    },
    {
      "inputs": [
        {
          "internalType": "bytes",
          "name": "encodedVm",
          "type": "bytes"
        }
      ],
      "name": "completeTransfer",
      "outputs": [],
      "stateMutability": "nonpayable",
      "type": "function"
    },
    {
      "inputs": [
        {
          "internalType": "bytes",
          "name": "encodedVm",
          "type": "bytes"
        }
      ],
      "name": "completeTransferAndUnwrapETH",
      "outputs": [],
      "stateMutability": "nonpayable",
      "type": "function"
    },
    {
      "inputs": [
        {
          "internalType": "bytes",
          "name": "encodedVm",
          "type": "bytes"
        }
      ],
      "name": "createWrapped",
      "outputs": [
        {
          "internalType": "address",
          "name": "token",
          "type": "address"
        }
      ],
      "stateMutability": "nonpayable",
      "type": "function"
    },
    {
      "inputs": [
        {
          "components": [
            {
              "internalType": "uint8",
              "name": "payloadID",
              "type": "uint8"
            },
            {
              "internalType": "bytes32",
              "name": "tokenAddress",
              "type": "bytes32"
            },
            {
              "internalType": "uint16",
              "name": "tokenChain",
              "type": "uint16"
            },
            {
              "internalType": "uint8",
              "name": "decimals",
              "type": "uint8"
            },
            {
              "internalType": "bytes32",
              "name": "symbol",
              "type": "bytes32"
            },
            {
              "internalType": "bytes32",
              "name": "name",
              "type": "bytes32"
            }
          ],
          "internalType": "struct BridgeStructs.AssetMeta",
          "name": "meta",
          "type": "tuple"
        }
      ],
      "name": "encodeAssetMeta",
      "outputs": [
        {
          "internalType": "bytes",
          "name": "encoded",
          "type": "bytes"
        }
      ],
      "stateMutability": "pure",
      "type": "function"
    },
    {
      "inputs": [
        {
          "components": [
            {
              "internalType": "uint8",
              "name": "payloadID",
              "type": "uint8"
            },
            {
              "internalType": "uint256",
              "name": "amount",
              "type": "uint256"
            },
            {
              "internalType": "bytes32",
              "name": "tokenAddress",
              "type": "bytes32"
            },
            {
              "internalType": "uint16",
              "name": "tokenChain",
              "type": "uint16"
            },
            {
              "internalType": "bytes32",
              "name": "to",
              "type": "bytes32"
            },
            {
              "internalType": "uint16",
              "name": "toChain",
              "type": "uint16"
            },
            {
              "internalType": "uint256",
              "name": "fee",
              "type": "uint256"
            }
          ],
          "internalType": "struct BridgeStructs.Transfer",
          "name": "transfer",
          "type": "tuple"
        }
      ],
      "name": "encodeTransfer",
      "outputs": [
        {
          "internalType": "bytes",
          "name": "encoded",
          "type": "bytes"
        }
      ],
      "stateMutability": "pure",
      "type": "function"
    },
    {
      "inputs": [
        {
          "internalType": "bytes32",
          "name": "hash",
          "type": "bytes32"
        }
      ],
      "name": "governanceActionIsConsumed",
      "outputs": [
        {
          "internalType": "bool",
          "name": "",
          "type": "bool"
        }
      ],
      "stateMutability": "view",
      "type": "function"
    },
    {
      "inputs": [],
      "name": "governanceChainId",
      "outputs": [
        {
          "internalType": "uint16",
          "name": "",
          "type": "uint16"
        }
      ],
      "stateMutability": "view",
      "type": "function"
    },
    {
      "inputs": [],
      "name": "governanceContract",
      "outputs": [
        {
          "internalType": "bytes32",
          "name": "",
          "type": "bytes32"
        }
      ],
      "stateMutability": "view",
      "type": "function"
    },
    {
      "inputs": [],
      "name": "implementation",
      "outputs": [
        {
          "internalType": "address",
          "name": "",
          "type": "address"
        }
      ],
      "stateMutability": "view",
      "type": "function"
    },
    {
      "inputs": [
        {
          "internalType": "address",
          "name": "impl",
          "type": "address"
        }
      ],
      "name": "isInitialized",
      "outputs": [
        {
          "internalType": "bool",
          "name": "",
          "type": "bool"
        }
      ],
      "stateMutability": "view",
      "type": "function"
    },
    {
      "inputs": [
        {
          "internalType": "bytes32",
          "name": "hash",
          "type": "bytes32"
        }
      ],
      "name": "isTransferCompleted",
      "outputs": [
        {
          "internalType": "bool",
          "name": "",
          "type": "bool"
        }
      ],
      "stateMutability": "view",
      "type": "function"
    },
    {
      "inputs": [
        {
          "internalType": "address",
          "name": "token",
          "type": "address"
        }
      ],
      "name": "isWrappedAsset",
      "outputs": [
        {
          "internalType": "bool",
          "name": "",
          "type": "bool"
        }
      ],
      "stateMutability": "view",
      "type": "function"
    },
    {
      "inputs": [
        {
          "internalType": "address",
          "name": "token",
          "type": "address"
        }
      ],
      "name": "outstandingBridged",
      "outputs": [
        {
          "internalType": "uint256",
          "name": "",
          "type": "uint256"
        }
      ],
      "stateMutability": "view",
      "type": "function"
    },
    {
      "inputs": [
        {
          "internalType": "bytes",
          "name": "encoded",
          "type": "bytes"
        }
      ],
      "name": "parseAssetMeta",
      "outputs": [
        {
          "components": [
            {
              "internalType": "uint8",
              "name": "payloadID",
              "type": "uint8"
            },
            {
              "internalType": "bytes32",
              "name": "tokenAddress",
              "type": "bytes32"
            },
            {
              "internalType": "uint16",
              "name": "tokenChain",
              "type": "uint16"
            },
            {
              "internalType": "uint8",
              "name": "decimals",
              "type": "uint8"
            },
            {
              "internalType": "bytes32",
              "name": "symbol",
              "type": "bytes32"
            },
            {
              "internalType": "bytes32",
              "name": "name",
              "type": "bytes32"
            }
          ],
          "internalType": "struct BridgeStructs.AssetMeta",
          "name": "meta",
          "type": "tuple"
        }
      ],
      "stateMutability": "pure",
      "type": "function"
    },
    {
      "inputs": [
        {
          "internalType": "bytes",
          "name": "encoded",
          "type": "bytes"
        }
      ],
      "name": "parseRegisterChain",
      "outputs": [
        {
          "components": [
            {
              "internalType": "bytes32",
              "name": "module",
              "type": "bytes32"
            },
            {
              "internalType": "uint8",
              "name": "action",
              "type": "uint8"
            },
            {
              "internalType": "uint16",
              "name": "chainId",
              "type": "uint16"
            },
            {
              "internalType": "uint16",
              "name": "emitterChainID",
              "type": "uint16"
            },
            {
              "internalType": "bytes32",
              "name": "emitterAddress",
              "type": "bytes32"
            }
          ],
          "internalType": "struct BridgeStructs.RegisterChain",
          "name": "chain",
          "type": "tuple"
        }
      ],
      "stateMutability": "pure",
      "type": "function"
    },
    {
      "inputs": [
        {
          "internalType": "bytes",
          "name": "encoded",
          "type": "bytes"
        }
      ],
      "name": "parseTransfer",
      "outputs": [
        {
          "components": [
            {
              "internalType": "uint8",
              "name": "payloadID",
              "type": "uint8"
            },
            {
              "internalType": "uint256",
              "name": "amount",
              "type": "uint256"
            },
            {
              "internalType": "bytes32",
              "name": "tokenAddress",
              "type": "bytes32"
            },
            {
              "internalType": "uint16",
              "name": "tokenChain",
              "type": "uint16"
            },
            {
              "internalType": "bytes32",
              "name": "to",
              "type": "bytes32"
            },
            {
              "internalType": "uint16",
              "name": "toChain",
              "type": "uint16"
            },
            {
              "internalType": "uint256",
              "name": "fee",
              "type": "uint256"
            }
          ],
          "internalType": "struct BridgeStructs.Transfer",
          "name": "transfer",
          "type": "tuple"
        }
      ],
      "stateMutability": "pure",
      "type": "function"
    },
    {
      "inputs": [
        {
          "internalType": "bytes",
          "name": "encoded",
          "type": "bytes"
        }
      ],
      "name": "parseUpgrade",
      "outputs": [
        {
          "components": [
            {
              "internalType": "bytes32",
              "name": "module",
              "type": "bytes32"
            },
            {
              "internalType": "uint8",
              "name": "action",
              "type": "uint8"
            },
            {
              "internalType": "uint16",
              "name": "chainId",
              "type": "uint16"
            },
            {
              "internalType": "bytes32",
              "name": "newContract",
              "type": "bytes32"
            }
          ],
          "internalType": "struct BridgeStructs.UpgradeContract",
          "name": "chain",
          "type": "tuple"
        }
      ],
      "stateMutability": "pure",
      "type": "function"
    },
    {
      "inputs": [
        {
          "internalType": "bytes",
          "name": "encodedVM",
          "type": "bytes"
        }
      ],
      "name": "registerChain",
      "outputs": [],
      "stateMutability": "nonpayable",
      "type": "function"
    },
    {
      "inputs": [],
      "name": "tokenImplementation",
      "outputs": [
        {
          "internalType": "address",
          "name": "",
          "type": "address"
        }
      ],
      "stateMutability": "view",
      "type": "function"
    },
    {
      "inputs": [
        {
          "internalType": "address",
          "name": "token",
          "type": "address"
        },
        {
          "internalType": "uint256",
          "name": "amount",
          "type": "uint256"
        },
        {
          "internalType": "uint16",
          "name": "recipientChain",
          "type": "uint16"
        },
        {
          "internalType": "bytes32",
          "name": "recipient",
          "type": "bytes32"
        },
        {
          "internalType": "uint256",
          "name": "arbiterFee",
          "type": "uint256"
        },
        {
          "internalType": "uint32",
          "name": "nonce",
          "type": "uint32"
        }
      ],
      "name": "transferTokens",
      "outputs": [
        {
          "internalType": "uint64",
          "name": "sequence",
          "type": "uint64"
        }
      ],
      "stateMutability": "payable",
      "type": "function"
    },
    {
      "inputs": [
        {
          "internalType": "bytes",
          "name": "encodedVm",
          "type": "bytes"
        }
      ],
      "name": "updateWrapped",
      "outputs": [
        {
          "internalType": "address",
          "name": "token",
          "type": "address"
        }
      ],
      "stateMutability": "nonpayable",
      "type": "function"
    },
    {
      "inputs": [
        {
          "internalType": "bytes",
          "name": "encodedVM",
          "type": "bytes"
        }
      ],
      "name": "upgrade",
      "outputs": [],
      "stateMutability": "nonpayable",
      "type": "function"
    },
    {
      "inputs": [],
      "name": "wormhole",
      "outputs": [
        {
          "internalType": "contract IWormhole",
          "name": "",
          "type": "address"
        }
      ],
      "stateMutability": "view",
      "type": "function"
    },
    {
      "inputs": [
        {
          "internalType": "uint16",
          "name": "recipientChain",
          "type": "uint16"
        },
        {
          "internalType": "bytes32",
          "name": "recipient",
          "type": "bytes32"
        },
        {
          "internalType": "uint256",
          "name": "arbiterFee",
          "type": "uint256"
        },
        {
          "internalType": "uint32",
          "name": "nonce",
          "type": "uint32"
        }
      ],
      "name": "wrapAndTransferETH",
      "outputs": [
        {
          "internalType": "uint64",
          "name": "sequence",
          "type": "uint64"
        }
      ],
      "stateMutability": "payable",
      "type": "function"
    },
    {
      "inputs": [
        {
          "internalType": "uint16",
          "name": "tokenChainId",
          "type": "uint16"
        },
        {
          "internalType": "bytes32",
          "name": "tokenAddress",
          "type": "bytes32"
        }
      ],
      "name": "wrappedAsset",
      "outputs": [
        {
          "internalType": "address",
          "name": "",
          "type": "address"
        }
      ],
      "stateMutability": "view",
      "type": "function"
    },
    {
      "stateMutability": "payable",
      "type": "receive"
    },
    {
      "inputs": [],
      "name": "initialize",
      "outputs": [],
      "stateMutability": "nonpayable",
      "type": "function"
    },
    {
      "inputs": [],
      "name": "testNewImplementationActive",
      "outputs": [
        {
          "internalType": "bool",
          "name": "",
          "type": "bool"
        }
      ],
      "stateMutability": "pure",
      "type": "function"
    },
    {
      "inputs": [
        {
          "internalType": "address",
          "name": "WETH",
          "type": "address"
        }
      ],
      "name": "testUpdateWETHAddress",
      "outputs": [],
      "stateMutability": "nonpayable",
      "type": "function"
    }
  ],
  "bytecode": "0x608060405234801561001057600080fd5b50614c1c806100206000396000f3fe6080604052600436106200020f5760003560e01c8063a5799f931162000117578063c48fa11511620000a1578063f768441f116200006c578063f768441f14620007bf578063fbe3c2cd14620007e4578063fbeeacd91462000805578063ff200cde146200086557600080fd5b8063c48fa1151462000721578063c68785191462000738578063d60b347f146200075d578063e8059810146200079a57600080fd5b8063b046223b11620000e2578063b046223b146200066e578063b172b2221462000693578063b626814614620006aa578063b96c7e4d14620006e757600080fd5b8063a5799f9314620005b1578063aa4efa5b14620005d6578063ad5c4648146200060a578063ad66a5f1146200062a57600080fd5b80632c3c02a411620001995780638129fc1c11620001645780638129fc1c146200053857806384acd1bb14620005505780639981509f14620005705780639a8a0592146200058757600080fd5b80632c3c02a414620004985780632f3a3d5d14620004cc5780635c60da1b14620004ec5780635f854266146200050457600080fd5b80631f8cdb2b11620001da5780631f8cdb2b14620003945780631ff1e28614620003aa5780632539464514620003e85780632b511375146200040f57600080fd5b806301f53255146200021c57806307dfd8fb146200029a5780630f5287b014620003165780631a2be4da146200034657600080fd5b366200021757005b600080fd5b3480156200022957600080fd5b50620002416200023b36600462003915565b6200088a565b604051620002919190600060a0820190508251825260ff6020840151166020830152604083015161ffff808216604085015280606086015116606085015250506080830151608083015292915050565b60405180910390f35b348015620002a757600080fd5b50620002bf620002b936600462003915565b62000a94565b604051620002919190600060c08201905060ff83511682526020830151602083015261ffff604084015116604083015260ff60608401511660608301526080830151608083015260a083015160a083015292915050565b6200032d6200032736600462003820565b62000c23565b6040516001600160401b03909116815260200162000291565b3480156200035357600080fd5b50620003836200036536600462003803565b6001600160a01b031660009081526009602052604090205460ff1690565b604051901515815260200162000291565b348015620003a157600080fd5b50600162000383565b348015620003b757600080fd5b50620003cf620003c936600462003cb1565b62000f1c565b6040516001600160a01b03909116815260200162000291565b348015620003f557600080fd5b506200040d6200040736600462003915565b62000f4b565b005b3480156200041c57600080fd5b50620004346200042e36600462003915565b6200102f565b604051620002919190600060e08201905060ff83511682526020830151602083015260408301516040830152606083015161ffff8082166060850152608085015160808501528060a08601511660a0850152505060c083015160c083015292915050565b348015620004a557600080fd5b5062000383620004b7366004620038e3565b60009081526005602052604090205460ff1690565b348015620004d957600080fd5b506001546001600160a01b0316620003cf565b348015620004f957600080fd5b50620003cf620011e4565b3480156200051157600080fd5b50620005296200052336600462003a5f565b620011fe565b60405162000291919062003e0e565b3480156200054557600080fd5b506200040d62001293565b3480156200055d57600080fd5b506000546001600160a01b0316620003cf565b6200032d6200058136600462003cdf565b6200135d565b3480156200059457600080fd5b5060025461ffff165b60405161ffff909116815260200162000291565b348015620005be57600080fd5b506200040d620005d036600462003915565b620015f7565b348015620005e357600080fd5b5062000383620005f5366004620038e3565b60009081526006602052604090205460ff1690565b3480156200061757600080fd5b506004546001600160a01b0316620003cf565b3480156200063757600080fd5b506200065f6200064936600462003c73565b61ffff166000908152600b602052604090205490565b60405190815260200162000291565b3480156200067b57600080fd5b50620005296200068d366004620039c5565b62001764565b348015620006a057600080fd5b506003546200065f565b348015620006b757600080fd5b506200040d620006c936600462003803565b600480546001600160a01b0319166001600160a01b03831617905550565b348015620006f457600080fd5b506200065f6200070636600462003803565b6001600160a01b03166000908152600a602052604090205490565b6200032d620007323660046200388b565b620017dd565b3480156200074557600080fd5b506200040d6200075736600462003915565b62001add565b3480156200076a57600080fd5b50620003836200077c36600462003803565b6001600160a01b031660009081526007602052604090205460ff1690565b348015620007a757600080fd5b50620003cf620007b936600462003915565b62001aea565b348015620007cc57600080fd5b50620003cf620007de36600462003915565b62001c09565b348015620007f157600080fd5b5060025462010000900461ffff166200059d565b3480156200081257600080fd5b506200082a6200082436600462003915565b62001d1e565b6040516200029191908151815260208083015160ff169082015260408083015161ffff16908201526060918201519181019190915260800190565b3480156200087257600080fd5b506200040d6200088436600462003915565b62001ef9565b6040805160a081018252600080825260208201819052918101829052606081018290526080810182905290620008c1838262001f06565b8252620008d060208262003fde565b82519091506a546f6b656e42726964676514620009405760405162461bcd60e51b815260206004820152602360248201527f696e76616c6964205265676973746572436861696e3a2077726f6e67206d6f64604482015262756c6560e81b60648201526084015b60405180910390fd5b6200094c838262001f68565b60ff1660208301526200096160018262003fde565b9050816020015160ff16600114620009c85760405162461bcd60e51b815260206004820152602360248201527f696e76616c6964205265676973746572436861696e3a2077726f6e672061637460448201526234b7b760e91b606482015260840162000937565b620009d4838262001fc8565b61ffff166040830152620009ea60028262003fde565b9050620009f8838262001fc8565b61ffff16606083015262000a0e60028262003fde565b905062000a1c838262001f06565b608083015262000a2e60208262003fde565b90508083511462000a8e5760405162461bcd60e51b815260206004820152602360248201527f696e76616c6964205265676973746572436861696e3a2077726f6e67206c656e6044820152620cee8d60eb1b606482015260840162000937565b50919050565b6040805160c081018252600080825260208201819052918101829052606081018290526080810182905260a081018290529062000ad2838262001f68565b60ff16825262000ae460018262003fde565b9050816000015160ff1660021462000b335760405162461bcd60e51b8152602060048201526011602482015270696e76616c69642041737365744d65746160781b604482015260640162000937565b62000b3f838262001f06565b60208084019190915262000b54908262003fde565b905062000b62838262001fc8565b61ffff16604083015262000b7860028262003fde565b905062000b86838262001f68565b60ff16606083015262000b9b60018262003fde565b905062000ba9838262001f06565b608083015262000bbb60208262003fde565b905062000bc9838262001f06565b60a083015262000bdb60208262003fde565b90508083511462000a8e5760405162461bcd60e51b8152602060048201526011602482015270696e76616c69642041737365744d65746160781b604482015260640162000937565b600080600062000c4b896001600160a01b031660009081526009602052604090205460ff1690565b1562000d4557886001600160a01b0316639a8a05926040518163ffffffff1660e01b815260040160206040518083038186803b15801562000c8b57600080fd5b505afa15801562000ca0573d6000803e3d6000fd5b505050506040513d601f19601f8201168201806040525081019062000cc6919062003c92565b9150886001600160a01b0316633d6c043b6040518163ffffffff1660e01b815260040160206040518083038186803b15801562000d0257600080fd5b505afa15801562000d17573d6000803e3d6000fd5b505050506040513d601f19601f8201168201806040525081019062000d3d9190620038fc565b905062000d59565b505060025461ffff166001600160a01b0388165b60408051600481526024810182526020810180516001600160e01b031663313ce56760e01b17905290516000916001600160a01b038c169162000d9d919062003d97565b600060405180830381855afa9150503d806000811462000dda576040519150601f19603f3d011682016040523d82523d6000602084013e62000ddf565b606091505b5091505060008180602001905181019062000dfb919062003d4a565b90508987600860ff8416111562000e5657600062000e1b6008856200415e565b62000e2890600a62004063565b905062000e36818462003ff9565b925062000e44818362003ff9565b915062000e52818462004122565b9c50505b60025461ffff8781169116141562000e885762000e768d33308f62002029565b62000e828d836200209c565b62000ef9565b62000e968d33308f62002029565b604051632770a7eb60e21b8152306004820152602481018d90526001600160a01b038e1690639dc29fac90604401600060405180830381600087803b15801562000edf57600080fd5b505af115801562000ef4573d6000803e3d6000fd5b505050505b62000f0b8686848e8e86348f62002169565b9d9c50505050505050505050505050565b61ffff821660009081526008602090815260408083208484529091529020546001600160a01b03165b92915050565b600080600062000f5b84620022a7565b92509250925081819062000f845760405162461bcd60e51b815260040162000937919062003e0e565b5062000faa8361014001516000908152600560205260409020805460ff19166001179055565b600062000fbb8460e0015162001d1e565b905062000fcb60025461ffff1690565b61ffff16816040015161ffff1614620010185760405162461bcd60e51b815260206004820152600e60248201526d1ddc9bdb99c818da185a5b881a5960921b604482015260640162000937565b60608101516200102890620024d6565b5050505050565b6040805160e081018252600080825260208201819052918101829052606081018290526080810182905260a0810182905260c081018290529062001074838262001f68565b60ff1682526200108660018262003fde565b9050816000015160ff16600114620010d45760405162461bcd60e51b815260206004820152601060248201526f34b73b30b634b2102a3930b739b332b960811b604482015260640162000937565b620010e083826200260d565b602080840191909152620010f5908262003fde565b905062001103838262001f06565b60408301526200111560208262003fde565b905062001123838262001fc8565b61ffff1660608301526200113960028262003fde565b905062001147838262001f06565b60808301526200115960208262003fde565b905062001167838262001fc8565b61ffff1660a08301526200117d60028262003fde565b90506200118b83826200260d565b60c08301526200119d60208262003fde565b90508083511462000a8e5760405162461bcd60e51b815260206004820152601060248201526f34b73b30b634b2102a3930b739b332b960811b604482015260640162000937565b6000620011f96001546001600160a01b031690565b905090565b8051602080830151604080850151606080870151608088015160a089015160c08a0151955160f89990991b6001600160f81b031916978901979097526021880195909552604187019290925260f091821b6001600160f01b03199081166061880152606387019490945293901b909116608384015260858301529060a5015b6040516020818303038152906040529050919050565b6000620012c77f360894a13ba1a3210667c828492db98dca3e2076cc3735a920a3ca505d382bbc546001600160a01b031690565b9050620012ec816001600160a01b031660009081526007602052604090205460ff1690565b15620013315760405162461bcd60e51b8152602060048201526013602482015272185b1c9958591e481a5b9a5d1a585b1a5e9959606a1b604482015260640162000937565b6200135a816001600160a01b03166000908152600760205260409020805460ff19166001179055565b50565b600080620013736000546001600160a01b031690565b6001600160a01b0316631a90a2196040518163ffffffff1660e01b815260040160206040518083038186803b158015620013ac57600080fd5b505afa158015620013c1573d6000803e3d6000fd5b505050506040513d601f19601f82011682018060405250810190620013e79190620038fc565b9050348110620014455760405162461bcd60e51b815260206004820152602260248201527f76616c756520697320736d616c6c6572207468616e20776f726d686f6c652066604482015261656560f01b606482015260840162000937565b600062001453823462004144565b905080851115620014bc5760405162461bcd60e51b815260206004820152602c60248201527f66656520697320626967676572207468616e20616d6f756e74206d696e75732060448201526b776f726d686f6c652066656560a01b606482015260840162000937565b6000620014cf6402540be4008362003ff9565b90506000620014e46402540be4008862003ff9565b90506000620014f9836402540be40062004122565b62001505908562004144565b905080156200153e57604051339082156108fc029083906000818181858888f193505050501580156200153c573d6000803e3d6000fd5b505b6004546001600160a01b031663d0e30db06200155b838762004144565b6040518263ffffffff1660e01b81526004016000604051808303818588803b1580156200158757600080fd5b505af11580156200159c573d6000803e3d6000fd5b5050505050620015bf620015b86004546001600160a01b031690565b846200209c565b620015e9620015d160025461ffff1690565b6004546001600160a01b0316858d8d878b8e62002169565b9a9950505050505050505050565b60008060006200160784620022a7565b925092509250818190620016305760405162461bcd60e51b815260040162000937919062003e0e565b50620016568361014001516000908152600560205260409020805460ff19166001179055565b6000620016678460e001516200088a565b90506200167760025461ffff1690565b61ffff16816040015161ffff161480620016975750604081015161ffff16155b620016d85760405162461bcd60e51b815260206004820152601060248201526f1a5b9d985b1a590818da185a5b881a5960821b604482015260640162000937565b606081015161ffff166000908152600b6020526040812054146200173f5760405162461bcd60e51b815260206004820152601860248201527f636861696e20616c726561647920726567697374657265640000000000000000604482015260640162000937565b620010288160600151826080015161ffff9091166000908152600b6020526040902055565b8051602080830151604080850151606080870151608088015160a0890151945160f898891b6001600160f81b031990811698820198909852602181019690965260f09390931b6001600160f01b031916604186015290951b9093166043830152604482019290925260648101919091526084016200127d565b60408051600481526024810182526020810180516001600160e01b031663313ce56760e01b179052905160009182916001600160a01b03861691620018229162003d97565b600060405180830381855afa9150503d80600081146200185f576040519150601f19603f3d011682016040523d82523d6000602084013e62001864565b606091505b5060408051600481526024810182526020810180516001600160e01b03166395d89b4160e01b1790529051919350600092506001600160a01b03871691620018ad919062003d97565b600060405180830381855afa9150503d8060008114620018ea576040519150601f19603f3d011682016040523d82523d6000602084013e620018ef565b606091505b5060408051600481526024810182526020810180516001600160e01b03166306fdde0360e01b1790529051919350600092506001600160a01b0388169162001938919062003d97565b600060405180830381855afa9150503d806000811462001975576040519150601f19603f3d011682016040523d82523d6000602084013e6200197a565b606091505b5091505060008380602001905181019062001996919062003d4a565b9050600083806020019051810190620019b091906200398f565b9050600083806020019051810190620019ca91906200398f565b9050600080602084015191506020830151905060006040518060c00160405280600260ff1681526020018d6001600160a01b031660001b815260200162001a1460025461ffff1690565b61ffff1681526020018760ff168152602001848152602001838152509050600062001a3f8262001764565b905062001a546000546001600160a01b031690565b6001600160a01b031663b19a437e348e84600f6040518563ffffffff1660e01b815260040162001a879392919062003efc565b6020604051808303818588803b15801562001aa157600080fd5b505af115801562001ab6573d6000803e3d6000fd5b50505050506040513d601f19601f8201168201806040525081019062000f0b919062003d2d565b6200135a81600062002666565b60008060008062001b036000546001600160a01b031690565b6001600160a01b031663c0fd8bde866040518263ffffffff1660e01b815260040162001b30919062003e0e565b60006040518083038186803b15801562001b4957600080fd5b505afa15801562001b5e573d6000803e3d6000fd5b505050506040513d6000823e601f3d908101601f1916820160405262001b88919081019062003b04565b92509250925081819062001bb15760405162461bcd60e51b815260040162000937919062003e0e565b5062001bbd8362002d6e565b62001bdc5760405162461bcd60e51b8152600401620009379062003ed3565b600062001bed8460e0015162000a94565b905062001bff818560a0015162002dab565b9695505050505050565b60008060008062001c226000546001600160a01b031690565b6001600160a01b031663c0fd8bde866040518263ffffffff1660e01b815260040162001c4f919062003e0e565b60006040518083038186803b15801562001c6857600080fd5b505afa15801562001c7d573d6000803e3d6000fd5b505050506040513d6000823e601f3d908101601f1916820160405262001ca7919081019062003b04565b92509250925081819062001cd05760405162461bcd60e51b815260040162000937919062003e0e565b5062001cdc8362002d6e565b62001cfb5760405162461bcd60e51b8152600401620009379062003ed3565b600062001d0c8460e0015162000a94565b905062001bff818560a001516200305c565b60408051608081018252600080825260208201819052918101829052606081018290529062001d4e838262001f06565b825262001d5d60208262003fde565b82519091506a546f6b656e4272696467651462001dcb5760405162461bcd60e51b815260206004820152602560248201527f696e76616c69642055706772616465436f6e74726163743a2077726f6e67206d6044820152646f64756c6560d81b606482015260840162000937565b62001dd7838262001f68565b60ff16602083015262001dec60018262003fde565b9050816020015160ff1660021462001e555760405162461bcd60e51b815260206004820152602560248201527f696e76616c69642055706772616465436f6e74726163743a2077726f6e67206160448201526431ba34b7b760d91b606482015260840162000937565b62001e61838262001fc8565b61ffff16604083015262001e7760028262003fde565b905062001e85838262001f06565b606083015262001e9760208262003fde565b90508083511462000a8e5760405162461bcd60e51b815260206004820152602560248201527f696e76616c69642055706772616465436f6e74726163743a2077726f6e67206c6044820152640cadccee8d60db1b606482015260840162000937565b6200135a81600162002666565b600062001f1582602062003fde565b8351101562001f5f5760405162461bcd60e51b8152602060048201526015602482015274746f427974657333325f6f75744f66426f756e647360581b604482015260640162000937565b50016020015190565b600062001f7782600162003fde565b8351101562001fbf5760405162461bcd60e51b8152602060048201526013602482015272746f55696e74385f6f75744f66426f756e647360681b604482015260640162000937565b50016001015190565b600062001fd782600262003fde565b83511015620020205760405162461bcd60e51b8152602060048201526014602482015273746f55696e7431365f6f75744f66426f756e647360601b604482015260640162000937565b50016002015190565b6040516001600160a01b0380851660248301528316604482015260648101829052620020969085906323b872dd60e01b906084015b60408051601f198184030181529190526020810180516001600160e01b03166001600160e01b03199093169290921790915262003157565b50505050565b6001600160a01b0382166000908152600a60205260409020546001600160401b03620020c9838362003fde565b1115620021375760405162461bcd60e51b815260206004820152603560248201527f7472616e736665722065786365656473206d6178206f75747374616e64696e6760448201527408189c9a5919d959081d1bdad95b88185b5bdd5b9d605a1b606482015260840162000937565b620021648362002148848462003fde565b6001600160a01b039091166000908152600a6020526040902055565b505050565b600086841115620021b25760405162461bcd60e51b815260206004820152601260248201527119995948195e18d959591cc8185b5bdd5b9d60721b604482015260640162000937565b6040805160e081018252600181526020810189905290810189905261ffff808b16606083015260808201879052871660a082015260c081018590526000620021fa82620011fe565b90506200220f6000546001600160a01b031690565b6001600160a01b031663b19a437e868684600f6040518563ffffffff1660e01b8152600401620022429392919062003efc565b6020604051808303818588803b1580156200225c57600080fd5b505af115801562002271573d6000803e3d6000fd5b50505050506040513d601f19601f8201168201806040525081019062002298919062003d2d565b9b9a5050505050505050505050565b604080516101608101825260008082526020820181905291810182905260608082018390526080820183905260a0820183905260c0820183905260e0820181905261010082018390526101208201526101408101919091526000606060008060006200231b6000546001600160a01b031690565b6001600160a01b031663c0fd8bde886040518263ffffffff1660e01b815260040162002348919062003e0e565b60006040518083038186803b1580156200236157600080fd5b505afa15801562002376573d6000803e3d6000fd5b505050506040513d6000823e601f3d908101601f19168201604052620023a0919081019062003b04565b92509250925081620023b95791945092509050620024cf565b60025462010000900461ffff1661ffff16836060015161ffff1614620024175750506040805180820190915260168152753bb937b7339033b7bb32b93730b731b29031b430b4b760511b6020820152909350600092509050620024cf565b6003548360800151146200246a57505060408051808201909152601981527f77726f6e6720676f7665726e616e636520636f6e7472616374000000000000006020820152909350600092509050620024cf565b61014083015160009081526005602052604090205460ff1615620024b45782600060405180606001604052806022815260200162004bc560229139955095509550505050620024cf565b50506040805160208101909152600081529093506001925090505b9193909250565b60006200250a7f360894a13ba1a3210667c828492db98dca3e2076cc3735a920a3ca505d382bbc546001600160a01b031690565b9050620025178262003230565b60408051600481526024810182526020810180516001600160e01b031663204a7f0760e21b179052905160009182916001600160a01b038616916200255c9162003d97565b600060405180830381855af49150503d806000811462002599576040519150601f19603f3d011682016040523d82523d6000602084013e6200259e565b606091505b5091509150818190620025c65760405162461bcd60e51b815260040162000937919062003e0e565b50836001600160a01b0316836001600160a01b03167f2e4cc16c100f0b55e2df82ab0b1a7e294aa9cbd01b48fbaf622683fbc0507a4960405160405180910390a350505050565b60006200261c82602062003fde565b8351101562001f5f5760405162461bcd60e51b8152602060048201526015602482015274746f55696e743235365f6f75744f66426f756e647360581b604482015260640162000937565b60008060006200267e6000546001600160a01b031690565b6001600160a01b031663c0fd8bde866040518263ffffffff1660e01b8152600401620026ab919062003e0e565b60006040518083038186803b158015620026c457600080fd5b505afa158015620026d9573d6000803e3d6000fd5b505050506040513d6000823e601f3d908101601f1916820160405262002703919081019062003b04565b9250925092508181906200272c5760405162461bcd60e51b815260040162000937919062003e0e565b50620027388362002d6e565b620027575760405162461bcd60e51b8152600401620009379062003ed3565b6000620027688460e001516200102f565b90506200278984610140015160009081526006602052604090205460ff1690565b15620027d85760405162461bcd60e51b815260206004820152601a60248201527f7472616e7366657220616c726561647920636f6d706c65746564000000000000604482015260640162000937565b620027fd8461014001516000908152600660205260409020805460ff19166001179055565b60025461ffff1661ffff168160a0015161ffff1614620028575760405162461bcd60e51b815260206004820152601460248201527334b73b30b634b2103a30b933b2ba1031b430b4b760611b604482015260640162000937565b60006200286760025461ffff1690565b61ffff16826060015161ffff161415620028995750604081015160208201516200289390829062003272565b6200291a565b6000620028af8360600151846040015162000f1c565b90506001600160a01b038116620029175760405162461bcd60e51b815260206004820152602560248201527f6e6f207772617070657220666f72207468697320746f6b656e2063726561746560448201526419081e595d60da1b606482015260840162000937565b90505b8515806200293557506004546001600160a01b038281169116145b6200298f5760405162461bcd60e51b815260206004820152602360248201527f696e76616c696420746f6b656e2c2063616e206f6e6c7920756e77726170205760448201526208aa8960eb1b606482015260840162000937565b60408051600481526024810182526020810180516001600160e01b031663313ce56760e01b17905290516000916001600160a01b03841691620029d3919062003d97565b600060405180830381855afa9150503d806000811462002a10576040519150601f19603f3d011682016040523d82523d6000602084013e62002a15565b606091505b5091505060008180602001905181019062002a31919062003d4a565b602085015160c086015191925090600860ff8416111562002a8857600062002a5b6008856200415e565b62002a6890600a62004063565b905062002a76818462004122565b925062002a84818362004122565b9150505b801562002c15578181111562002aec5760405162461bcd60e51b815260206004820152602260248201527f66656520686967686572207468616e207472616e7366657272656420616d6f756044820152611b9d60f21b606482015260840162000937565b891562002b865760048054604051632e1a7d4d60e01b81529182018390526001600160a01b031690632e1a7d4d90602401600060405180830381600087803b15801562002b3857600080fd5b505af115801562002b4d573d6000803e3d6000fd5b505060405133925083156108fc02915083906000818181858888f1935050505015801562002b7f573d6000803e3d6000fd5b5062002c15565b60025461ffff1661ffff16866060015161ffff161462002c08576040516340c10f1960e01b8152336004820152602481018290526001600160a01b038616906340c10f1990604401600060405180830381600087803b15801562002be957600080fd5b505af115801562002bfe573d6000803e3d6000fd5b5050505062002c15565b62002c15853383620032a8565b600062002c23828462004144565b60808801519091508b1562002cce5760048054604051632e1a7d4d60e01b81529182018490526001600160a01b031690632e1a7d4d90602401600060405180830381600087803b15801562002c7757600080fd5b505af115801562002c8c573d6000803e3d6000fd5b50506040516001600160a01b038416925084156108fc02915084906000818181858888f1935050505015801562002cc7573d6000803e3d6000fd5b5062002d5f565b60025461ffff1661ffff16886060015161ffff161462002d52576040516340c10f1960e01b81526001600160a01b038281166004830152602482018490528816906340c10f1990604401600060405180830381600087803b15801562002d3357600080fd5b505af115801562002d48573d6000803e3d6000fd5b5050505062002d5f565b62002d5f878284620032a8565b50505050505050505050505050565b6000816080015162002d94836060015161ffff166000908152600b602052604090205490565b141562002da357506001919050565b506000919050565b600062002dbb60025461ffff1690565b61ffff16836040015161ffff16141562002e295760405162461bcd60e51b815260206004820152602860248201527f63616e206f6e6c79207772617020746f6b656e732066726f6d20666f726569676044820152676e20636861696e7360c01b606482015260840162000937565b60006001600160a01b031662002e488460400151856020015162000f1c565b6001600160a01b03161462002ea05760405162461bcd60e51b815260206004820152601c60248201527f7772617070656420617373657420616c72656164792065786973747300000000604482015260640162000937565b600063c71f461560e01b62002eb98560a00151620032da565b62002ec88660800151620032da565b8660600151863089604001518a6020015160405160240162002ef1979695949392919062003e66565b60408051601f19818403018152918152602080830180516001600160e01b03166001600160e01b0319909516949094179093525190925060009162002f3b91309185910162003de8565b604051602081830303815290604052905060006040518060200162002f609062003647565b601f1982820381018352601f90910116604081905262002f869190849060200162003db5565b604051602081830303815290604052905060008660400151876020015160405160200162002fcd92919060f09290921b6001600160f01b0319168252600282015260220190565b604051602081830303815290604052805190602001209050808251602084016000f59450843b62002ffd57600080fd5b6040808801516020808a015161ffff90921660009081526008825283812092815291815282822080546001600160a01b0319166001600160a01b038a1690811790915582526009905220805460ff191660011790555050505092915050565b600080620030738460400151856020015162000f1c565b90506001600160a01b038116620030cd5760405162461bcd60e51b815260206004820152601d60248201527f7772617070656420617373657420646f6573206e6f7420657869737473000000604482015260640162000937565b806001600160a01b031663a18cd7c6620030eb8660a00151620032da565b620030fa8760800151620032da565b866040518463ffffffff1660e01b81526004016200311b9392919062003e23565b600060405180830381600087803b1580156200313657600080fd5b505af11580156200314b573d6000803e3d6000fd5b50929695505050505050565b6000620031ae826040518060400160405280602081526020017f5361666545524332303a206c6f772d6c6576656c2063616c6c206661696c6564815250856001600160a01b0316620034159092919063ffffffff16565b805190915015620021645780806020019051810190620031cf9190620038c6565b620021645760405162461bcd60e51b815260206004820152602a60248201527f5361666545524332303a204552433230206f7065726174696f6e20646964206e6044820152691bdd081cdd58d8d9595960b21b606482015260840162000937565b6200323b8162003430565b6040516001600160a01b038216907fbc7cd75a20ee27fd9adebab32041f755214dbc6bffa90cc0225b39da2e5c2d3b90600090a250565b620032a4828262003298856001600160a01b03166000908152600a602052604090205490565b62002148919062004144565b5050565b6040516001600160a01b0383166024820152604481018290526200216490849063a9059cbb60e01b906064016200205e565b606060005b6020811080156200331d57508281602081106200330c57634e487b7160e01b600052603260045260246000fd5b1a60f81b6001600160f81b03191615155b156200333857806200332f81620041b3565b915050620032df565b6000816001600160401b038111156200336157634e487b7160e01b600052604160045260246000fd5b6040519080825280601f01601f1916602001820160405280156200338c576020820181803683370190505b50905060005b828110156200340d57848160208110620033bc57634e487b7160e01b600052603260045260246000fd5b1a60f81b828281518110620033e157634e487b7160e01b600052603260045260246000fd5b60200101906001600160f81b031916908160001a905350806200340481620041b3565b91505062003392565b509392505050565b6060620034268484600085620034d7565b90505b9392505050565b803b620034965760405162461bcd60e51b815260206004820152602d60248201527f455243313936373a206e657720696d706c656d656e746174696f6e206973206e60448201526c1bdd08184818dbdb9d1c9858dd609a1b606482015260840162000937565b7f360894a13ba1a3210667c828492db98dca3e2076cc3735a920a3ca505d382bbc80546001600160a01b0319166001600160a01b0392909216919091179055565b6060824710156200353a5760405162461bcd60e51b815260206004820152602660248201527f416464726573733a20696e73756666696369656e742062616c616e636520666f6044820152651c8818d85b1b60d21b606482015260840162000937565b843b6200358a5760405162461bcd60e51b815260206004820152601d60248201527f416464726573733a2063616c6c20746f206e6f6e2d636f6e7472616374000000604482015260640162000937565b600080866001600160a01b03168587604051620035a8919062003d97565b60006040518083038185875af1925050503d8060008114620035e7576040519150601f19603f3d011682016040523d82523d6000602084013e620035ec565b606091505b5091509150620035fe82828662003609565b979650505050505050565b606083156200361a57508162003429565b8251156200362b5782518084602001fd5b8160405162461bcd60e51b815260040162000937919062003e0e565b610993806200423283390190565b80356001600160a01b03811681146200366d57600080fd5b919050565b600082601f83011262003683578081fd5b815160206001600160401b03821115620036a157620036a1620041e7565b620036b1818360051b0162003f81565b80838252828201915082860187848660071b8901011115620036d1578586fd5b855b858110156200374157608080838b031215620036ed578788fd5b620036f762003f30565b835181528684015187820152604080850151620037148162004221565b90820152606084810151620037298162004221565b908201528552938501939190910190600101620036d3565b5090979650505050505050565b805180151581146200366d57600080fd5b600082601f83011262003770578081fd5b815162003787620037818262003fb4565b62003f81565b8181528460208386010111156200379c578283fd5b620037af82602083016020870162004184565b949350505050565b80356200366d81620041fd565b80516200366d81620041fd565b80516200366d816200420e565b80516001600160401b03811681146200366d57600080fd5b80516200366d8162004221565b60006020828403121562003815578081fd5b620034298262003655565b60008060008060008060c0878903121562003839578182fd5b620038448762003655565b95506020870135945060408701356200385d81620041fd565b9350606087013592506080870135915060a08701356200387d816200420e565b809150509295509295509295565b600080604083850312156200389e578182fd5b620038a98362003655565b91506020830135620038bb816200420e565b809150509250929050565b600060208284031215620038d8578081fd5b62003429826200374e565b600060208284031215620038f5578081fd5b5035919050565b6000602082840312156200390e578081fd5b5051919050565b60006020828403121562003927578081fd5b81356001600160401b038111156200393d578182fd5b8201601f810184136200394e578182fd5b80356200395f620037818262003fb4565b81815285602083850101111562003974578384fd5b81602084016020830137908101602001929092525092915050565b600060208284031215620039a1578081fd5b81516001600160401b03811115620039b7578182fd5b620037af848285016200375f565b600060c08284031215620039d7578081fd5b60405160c081018181106001600160401b0382111715620039fc57620039fc620041e7565b604052823562003a0c8162004221565b815260208381013590820152604083013562003a2881620041fd565b6040820152606083013562003a3d8162004221565b60608201526080838101359082015260a0928301359281019290925250919050565b600060e0828403121562003a71578081fd5b60405160e081018181106001600160401b038211171562003a965762003a96620041e7565b604052823562003aa68162004221565b808252506020830135602082015260408301356040820152606083013562003ace81620041fd565b60608201526080838101359082015262003aeb60a08401620037b7565b60a082015260c083013560c08201528091505092915050565b60008060006060848603121562003b19578081fd5b83516001600160401b038082111562003b30578283fd5b90850190610160828803121562003b45578283fd5b62003b4f62003f5b565b62003b5a83620037f6565b815262003b6a60208401620037d1565b602082015262003b7d60408401620037d1565b604082015262003b9060608401620037c4565b60608201526080830151608082015262003bad60a08401620037de565b60a082015262003bc060c08401620037f6565b60c082015260e08301518281111562003bd7578485fd5b62003be5898286016200375f565b60e08301525061010062003bfb818501620037d1565b90820152610120838101518381111562003c13578586fd5b62003c218a82870162003672565b91830191909152506101408381015190820152945062003c44602087016200374e565b9350604086015191508082111562003c5a578283fd5b5062003c69868287016200375f565b9150509250925092565b60006020828403121562003c85578081fd5b81356200342981620041fd565b60006020828403121562003ca4578081fd5b81516200342981620041fd565b6000806040838503121562003cc4578182fd5b823562003cd181620041fd565b946020939093013593505050565b6000806000806080858703121562003cf5578182fd5b843562003d0281620041fd565b93506020850135925060408501359150606085013562003d22816200420e565b939692955090935050565b60006020828403121562003d3f578081fd5b6200342982620037de565b60006020828403121562003d5c578081fd5b8151620034298162004221565b6000815180845262003d8381602086016020860162004184565b601f01601f19169290920160200192915050565b6000825162003dab81846020870162004184565b9190910192915050565b6000835162003dc981846020880162004184565b83519083019062003ddf81836020880162004184565b01949350505050565b6001600160a01b0383168152604060208201819052600090620034269083018462003d69565b60208152600062003429602083018462003d69565b60608152600062003e38606083018662003d69565b828103602084015262003e4c818662003d69565b9150506001600160401b0383166040830152949350505050565b60e08152600062003e7b60e083018a62003d69565b828103602084015262003e8f818a62003d69565b60ff98909816604084015250506001600160401b039490941660608501526001600160a01b0392909216608084015261ffff1660a083015260c09091015292915050565b6020808252600f908201526e34b73b30b634b21032b6b4ba3a32b960891b604082015260600190565b63ffffffff8416815260606020820152600062003f1d606083018562003d69565b905060ff83166040830152949350505050565b604051608081016001600160401b038111828210171562003f555762003f55620041e7565b60405290565b60405161016081016001600160401b038111828210171562003f555762003f55620041e7565b604051601f8201601f191681016001600160401b038111828210171562003fac5762003fac620041e7565b604052919050565b60006001600160401b0382111562003fd05762003fd0620041e7565b50601f01601f191660200190565b6000821982111562003ff45762003ff4620041d1565b500190565b6000826200401557634e487b7160e01b81526012600452602481fd5b500490565b600181815b808511156200405b5781600019048211156200403f576200403f620041d1565b808516156200404d57918102915b93841c93908002906200401f565b509250929050565b60006200342960ff8416836000826200407f5750600162000f45565b816200408e5750600062000f45565b8160018114620040a75760028114620040b257620040d2565b600191505062000f45565b60ff841115620040c657620040c6620041d1565b50506001821b62000f45565b5060208310610133831016604e8410600b8410161715620040f7575081810a62000f45565b6200410383836200401a565b80600019048211156200411a576200411a620041d1565b029392505050565b60008160001904831182151516156200413f576200413f620041d1565b500290565b600082821015620041595762004159620041d1565b500390565b600060ff821660ff8416808210156200417b576200417b620041d1565b90039392505050565b60005b83811015620041a157818101518382015260200162004187565b83811115620020965750506000910152565b6000600019821415620041ca57620041ca620041d1565b5060010190565b634e487b7160e01b600052601160045260246000fd5b634e487b7160e01b600052604160045260246000fd5b61ffff811681146200135a57600080fd5b63ffffffff811681146200135a57600080fd5b60ff811681146200135a57600080fdfe608060405234801561001057600080fd5b5060405161099338038061099383398101604081905261002f9161048e565b818161005c60017fa3f0ad74e5423aebfd80d3ef4346578335a9a72aeaee59ff6cb3582b35133d51610599565b60008051602061094c8339815191521461008657634e487b7160e01b600052600160045260246000fd5b6100928282600061009b565b505050506105fe565b6100a483610175565b6040516001600160a01b038416907f1cf3b03a6cf19fa2baba4df148e9dcabedea7f8a5c07840e207e5c089be95d3e90600090a26000825111806100e55750805b156101705761016e836001600160a01b0316635c60da1b6040518163ffffffff1660e01b815260040160206040518083038186803b15801561012657600080fd5b505afa15801561013a573d6000803e3d6000fd5b505050506040513d601f19601f8201168201806040525081019061015e9190610474565b8361031560201b6100291760201c565b505b505050565b6101888161034160201b6100551760201c565b6101e75760405162461bcd60e51b815260206004820152602560248201527f455243313936373a206e657720626561636f6e206973206e6f74206120636f6e6044820152641d1c9858dd60da1b60648201526084015b60405180910390fd5b61026a816001600160a01b0316635c60da1b6040518163ffffffff1660e01b815260040160206040518083038186803b15801561022357600080fd5b505afa158015610237573d6000803e3d6000fd5b505050506040513d601f19601f8201168201806040525081019061025b9190610474565b61034160201b6100551760201c565b6102cf5760405162461bcd60e51b815260206004820152603060248201527f455243313936373a20626561636f6e20696d706c656d656e746174696f6e206960448201526f1cc81b9bdd08184818dbdb9d1c9858dd60821b60648201526084016101de565b806102f460008051602061094c83398151915260001b61034760201b61005b1760201c565b80546001600160a01b0319166001600160a01b039290921691909117905550565b606061033a838360405180606001604052806027815260200161096c6027913961034a565b9392505050565b3b151590565b90565b6060833b6103a95760405162461bcd60e51b815260206004820152602660248201527f416464726573733a2064656c65676174652063616c6c20746f206e6f6e2d636f6044820152651b9d1c9858dd60d21b60648201526084016101de565b600080856001600160a01b0316856040516103c4919061054a565b600060405180830381855af49150503d80600081146103ff576040519150601f19603f3d011682016040523d82523d6000602084013e610404565b606091505b50909250905061041582828661041f565b9695505050505050565b6060831561042e57508161033a565b82511561043e5782518084602001fd5b8160405162461bcd60e51b81526004016101de9190610566565b80516001600160a01b038116811461046f57600080fd5b919050565b600060208284031215610485578081fd5b61033a82610458565b600080604083850312156104a0578081fd5b6104a983610458565b60208401519092506001600160401b03808211156104c5578283fd5b818501915085601f8301126104d8578283fd5b8151818111156104ea576104ea6105e8565b604051601f8201601f19908116603f01168101908382118183101715610512576105126105e8565b8160405282815288602084870101111561052a578586fd5b61053b8360208301602088016105bc565b80955050505050509250929050565b6000825161055c8184602087016105bc565b9190910192915050565b60208152600082518060208401526105858160408501602087016105bc565b601f01601f19169190910160400192915050565b6000828210156105b757634e487b7160e01b81526011600452602481fd5b500390565b60005b838110156105d75781810151838201526020016105bf565b8381111561016e5750506000910152565b634e487b7160e01b600052604160045260246000fd5b61033f8061060d6000396000f3fe60806040523661001357610011610017565b005b6100115b61002761002261005e565b610106565b565b606061004e83836040518060600160405280602781526020016102e36027913961012a565b9392505050565b3b151590565b90565b60006100917fa3f0ad74e5423aebfd80d3ef4346578335a9a72aeaee59ff6cb3582b35133d50546001600160a01b031690565b6001600160a01b0316635c60da1b6040518163ffffffff1660e01b815260040160206040518083038186803b1580156100c957600080fd5b505afa1580156100dd573d6000803e3d6000fd5b505050506040513d601f19601f82011682018060405250810190610101919061023c565b905090565b3660008037600080366000845af43d6000803e808015610125573d6000f35b3d6000fd5b6060833b61018e5760405162461bcd60e51b815260206004820152602660248201527f416464726573733a2064656c65676174652063616c6c20746f206e6f6e2d636f6044820152651b9d1c9858dd60d21b60648201526084015b60405180910390fd5b600080856001600160a01b0316856040516101a99190610263565b600060405180830381855af49150503d80600081146101e4576040519150601f19603f3d011682016040523d82523d6000602084013e6101e9565b606091505b50915091506101f9828286610203565b9695505050505050565b6060831561021257508161004e565b8251156102225782518084602001fd5b8160405162461bcd60e51b8152600401610185919061027f565b60006020828403121561024d578081fd5b81516001600160a01b038116811461004e578182fd5b600082516102758184602087016102b2565b9190910192915050565b602081526000825180602084015261029e8160408501602087016102b2565b601f01601f19169190910160400192915050565b60005b838110156102cd5781810151838201526020016102b5565b838111156102dc576000848401525b5050505056fe416464726573733a206c6f772d6c6576656c2064656c65676174652063616c6c206661696c6564a26469706673582212206c89b1509286d5054698613a2cb29d9c557cc3f039f066cfbb83200280ea0a3c64736f6c63430008040033a3f0ad74e5423aebfd80d3ef4346578335a9a72aeaee59ff6cb3582b35133d50416464726573733a206c6f772d6c6576656c2064656c65676174652063616c6c206661696c6564676f7665726e616e636520616374696f6e20616c726561647920636f6e73756d6564a2646970667358221220ab2c54c1e145e95c15ca97994a92916d7dc0ae1030c03c10eaa1104baee2c40564736f6c63430008040033",
  "immutableReferences": {},
  "source": "// contracts/Implementation.sol\n// SPDX-License-Identifier: Apache 2\n\npragma solidity ^0.8.0;\n\nimport \"../BridgeImplementation.sol\";\n\ncontract MockBridgeImplementation is BridgeImplementation {\n    function initialize() initializer public {\n        // this function needs to be exposed for an upgrade to pass\n    }\n\n    function testNewImplementationActive() external pure returns (bool) {\n        return true;\n    }\n\n    function testUpdateWETHAddress(address WETH) external {\n        setWETH(WETH);\n    }\n}\n",
  "sourcePath": "/home/atlas-bridge/ethereum/contracts/bridge/mock/MockBridgeImplementation.sol",
  "compiler": {
    "name": "solc",
    "version": "0.8.4+commit.c7e474f2.Emscripten.clang"
  },
  "schemaVersion": "3.4.1",
  "updatedAt": "2021-10-15T20:01:14.781Z",
  "devdoc": {
    "kind": "dev",
    "methods": {},
    "version": 1
  },
  "userdoc": {
    "kind": "user",
    "methods": {},
    "version": 1
  }
}