{
  "contractName": "NFTBridgeGetters",
  "abi": [
    {
      "inputs": [
        {
          "internalType": "bytes32",
          "name": "hash",
          "type": "bytes32"
        }
      ],
      "name": "governanceActionIsConsumed",
      "outputs": [
        {
          "internalType": "bool",
          "name": "",
          "type": "bool"
        }
      ],
      "stateMutability": "view",
      "type": "function"
    },
    {
      "inputs": [
        {
          "internalType": "address",
          "name": "impl",
          "type": "address"
        }
      ],
      "name": "isInitialized",
      "outputs": [
        {
          "internalType": "bool",
          "name": "",
          "type": "bool"
        }
      ],
      "stateMutability": "view",
      "type": "function"
    },
    {
      "inputs": [
        {
          "internalType": "bytes32",
          "name": "hash",
          "type": "bytes32"
        }
      ],
      "name": "isTransferCompleted",
      "outputs": [
        {
          "internalType": "bool",
          "name": "",
          "type": "bool"
        }
      ],
      "stateMutability": "view",
      "type": "function"
    },
    {
      "inputs": [],
      "name": "wormhole",
      "outputs": [
        {
          "internalType": "contract IWormhole",
          "name": "",
          "type": "address"
        }
      ],
      "stateMutability": "view",
      "type": "function"
    },
    {
      "inputs": [],
      "name": "chainId",
      "outputs": [
        {
          "internalType": "uint16",
          "name": "",
          "type": "uint16"
        }
      ],
      "stateMutability": "view",
      "type": "function"
    },
    {
      "inputs": [],
      "name": "governanceChainId",
      "outputs": [
        {
          "internalType": "uint16",
          "name": "",
          "type": "uint16"
        }
      ],
      "stateMutability": "view",
      "type": "function"
    },
    {
      "inputs": [],
      "name": "governanceContract",
      "outputs": [
        {
          "internalType": "bytes32",
          "name": "",
          "type": "bytes32"
        }
      ],
      "stateMutability": "view",
      "type": "function"
    },
    {
      "inputs": [
        {
          "internalType": "uint16",
          "name": "tokenChainId",
          "type": "uint16"
        },
        {
          "internalType": "bytes32",
          "name": "tokenAddress",
          "type": "bytes32"
        }
      ],
      "name": "wrappedAsset",
      "outputs": [
        {
          "internalType": "address",
          "name": "",
          "type": "address"
        }
      ],
      "stateMutability": "view",
      "type": "function"
    },
    {
      "inputs": [
        {
          "internalType": "uint16",
          "name": "chainId_",
          "type": "uint16"
        }
      ],
      "name": "bridgeContracts",
      "outputs": [
        {
          "internalType": "bytes32",
          "name": "",
          "type": "bytes32"
        }
      ],
      "stateMutability": "view",
      "type": "function"
    },
    {
      "inputs": [],
      "name": "tokenImplementation",
      "outputs": [
        {
          "internalType": "address",
          "name": "",
          "type": "address"
        }
      ],
      "stateMutability": "view",
      "type": "function"
    },
    {
      "inputs": [
        {
          "internalType": "address",
          "name": "token",
          "type": "address"
        }
      ],
      "name": "isWrappedAsset",
      "outputs": [
        {
          "internalType": "bool",
          "name": "",
          "type": "bool"
        }
      ],
      "stateMutability": "view",
      "type": "function"
    },
    {
      "inputs": [
        {
          "internalType": "uint256",
          "name": "tokenId",
          "type": "uint256"
        }
      ],
      "name": "splCache",
      "outputs": [
        {
          "components": [
            {
              "internalType": "bytes32",
              "name": "name",
              "type": "bytes32"
            },
            {
              "internalType": "bytes32",
              "name": "symbol",
              "type": "bytes32"
            }
          ],
          "internalType": "struct NFTBridgeStorage.SPLCache",
          "name": "",
          "type": "tuple"
        }
      ],
      "stateMutability": "view",
      "type": "function"
    }
  ],
  "bytecode": "0x608060405234801561001057600080fd5b50610384806100206000396000f3fe608060405234801561001057600080fd5b50600436106100b45760003560e01c80639a8a0592116100715780639a8a0592146101f8578063aa4efa5b14610213578063ad66a5f114610236578063b172b22214610268578063d60b347f14610270578063fbe3c2cd1461029c57600080fd5b80631a2be4da146100b95780631ff1e286146100fa5780632c3c02a41461014c5780632f3a3d5d1461016f5780633ca648261461018057806384acd1bb146101e7575b600080fd5b6100e56100c73660046102c5565b6001600160a01b031660009081526008602052604090205460ff1690565b60405190151581526020015b60405180910390f35b610134610108366004610325565b61ffff91909116600090815260076020908152604080832093835292905220546001600160a01b031690565b6040516001600160a01b0390911681526020016100f1565b6100e561015a3660046102f3565b60009081526004602052604090205460ff1690565b6001546001600160a01b0316610134565b6101cc61018e3660046102f3565b6040805180820190915260008082526020820152506000908152600a6020908152604091829020825180840190935280548352600101549082015290565b604080518251815260209283015192810192909252016100f1565b6000546001600160a01b0316610134565b60025461ffff165b60405161ffff90911681526020016100f1565b6100e56102213660046102f3565b60009081526005602052604090205460ff1690565b61025a61024436600461030b565b61ffff1660009081526009602052604090205490565b6040519081526020016100f1565b60035461025a565b6100e561027e3660046102c5565b6001600160a01b031660009081526006602052604090205460ff1690565b60025462010000900461ffff16610200565b803561ffff811681146102c057600080fd5b919050565b6000602082840312156102d6578081fd5b81356001600160a01b03811681146102ec578182fd5b9392505050565b600060208284031215610304578081fd5b5035919050565b60006020828403121561031c578081fd5b6102ec826102ae565b60008060408385031215610337578081fd5b610340836102ae565b94602093909301359350505056fea264697066735822122003401d3408e0a6b6c4ed9486339197dbfe97b680f8ac193652a5cc8c0801e48064736f6c63430008040033",
  "immutableReferences": {},
  "source": "// contracts/Getters.sol\n// SPDX-License-Identifier: Apache 2\n\npragma solidity ^0.8.0;\n\nimport \"@openzeppelin/contracts/token/ERC20/IERC20.sol\";\n\nimport \"../interfaces/IWormhole.sol\";\n\nimport \"./NFTBridgeState.sol\";\n\ncontract NFTBridgeGetters is NFTBridgeState {\n    function governanceActionIsConsumed(bytes32 hash) public view returns (bool) {\n        return _state.consumedGovernanceActions[hash];\n    }\n\n    function isInitialized(address impl) public view returns (bool) {\n        return _state.initializedImplementations[impl];\n    }\n\n    function isTransferCompleted(bytes32 hash) public view returns (bool) {\n        return _state.completedTransfers[hash];\n    }\n\n    function wormhole() public view returns (IWormhole) {\n        return IWormhole(_state.wormhole);\n    }\n\n    function chainId() public view returns (uint16){\n        return _state.provider.chainId;\n    }\n\n    function governanceChainId() public view returns (uint16){\n        return _state.provider.governanceChainId;\n    }\n\n    function governanceContract() public view returns (bytes32){\n        return _state.provider.governanceContract;\n    }\n\n    function wrappedAsset(uint16 tokenChainId, bytes32 tokenAddress) public view returns (address){\n        return _state.wrappedAssets[tokenChainId][tokenAddress];\n    }\n\n    function bridgeContracts(uint16 chainId_) public view returns (bytes32){\n        return _state.bridgeImplementations[chainId_];\n    }\n\n    function tokenImplementation() public view returns (address){\n        return _state.tokenImplementation;\n    }\n\n    function isWrappedAsset(address token) public view returns (bool){\n        return _state.isWrappedAsset[token];\n    }\n\n    function splCache(uint256 tokenId) public view returns (NFTBridgeStorage.SPLCache memory) {\n        return _state.splCache[tokenId];\n    }\n}",
  "sourcePath": "/home/atlas-bridge/ethereum/contracts/nft/NFTBridgeGetters.sol",
  "compiler": {
    "name": "solc",
    "version": "0.8.4+commit.c7e474f2.Emscripten.clang"
  },
  "schemaVersion": "3.4.1",
  "updatedAt": "2021-10-15T20:01:14.987Z",
  "devdoc": {
    "kind": "dev",
    "methods": {},
    "version": 1
  },
  "userdoc": {
    "kind": "user",
    "methods": {},
    "version": 1
  }
}